:100000000C943B000C9463000C9463000C9463000C
:100010000C9463000C9463000C9463000C946300D4
:100020000C9463000C9463000C9463000C946300C4
:100030000C9463000C9463000C9463000C946300B4
:100040000C9407020C9463000C94D5010C94AF013E
:100050000C9463000C9463000C9463000C94630094
:100060000C9451020C9463006364696E6F70737535
:1000700078585B007F0311241FBECFEFD8E0DEBFAE
:10008000CDBF11E0A0E0B1E0E6EEF3E102C00590E3
:100090000D92A433B107D9F722E0A4E3B1E001C087
:1000A0001D92A83AB207E1F710E0CBE3D0E004C01C
:1000B0002197FE010E94E903CA33D107C9F70E94C4
:1000C000CA030C94F1090C940000CF92DF92EF92D6
:1000D000FF920F931F93CF93DF936C017A018B01F3
:1000E000C0E0D0E0CE15DF0589F0D8016D918D011B
:1000F000D601ED91FC910190F081E02DC6010995AA
:10010000892B11F47E0102C02196ECCFC701DF914B
:10011000CF911F910F91FF90EF90DF90CF900895B6
:10012000FC01918D828D981761F0828DDF01A80FFF
:10013000B11D5D968C91928D9F5F9F73928F90E021
:1001400008958FEF9FEF0895FC01918D828D981790
:1001500031F0828DE80FF11D858D90E008958FEFCD
:100160009FEF0895FC01918D228D892F90E0805C96
:100170009F4F821B91098F7399270895FC01848DED
:10018000DF01A80FB11DA35ABF4F2C91848D90E0C1
:1001900001968F739927848FA689B7892C93A0899C
:1001A000B1898C9180648C93938D848D981306C053
:1001B0000288F389E02D80818F7D80830895EF92FE
:1001C000FF920F931F93CF93DF93EC0181E0888F11
:1001D0009B8D8C8D981305C0E889F989808185FDF8
:1001E00024C0F62E0B8D10E00F5F1F4F0F731127E9
:1001F000E02E8C8DE8120CC00FB607FCFACFE88910
:10020000F989808185FFF5CFCE010E94BE00F1CF34
:100210008B8DFE01E80FF11DE35AFF4FF0820B8F2B
:10022000EA89FB898081806207C0EE89FF8960834B
:10023000E889F98980818064808381E090E0DF91A2
:10024000CF911F910F91FF90EF900895CF93DF937F
:10025000EC01888D8823C9F0EA89FB89808185FDBE
:1002600005C0A889B9898C9186FD0FC00FB607FC1F
:10027000F5CF808185FFF2CFA889B9898C9185FF60
:10028000EDCFCE010E94BE00E7CFDF91CF91089560
:1002900085ED8093BC008091BC0084FDFCCF109262
:1002A0007D01089540915701262F30E0240F311D24
:1002B00021323105DCF420917D012430C9F4FC01A8
:1002C00080E090E0861758F4309157012191DC01CD
:1002D000AB5CBE4FA30FB11D2C930196F3CF809161
:1002E0005701680F6093570180E0089581E00895F9
:1002F00082E0089508958FEF9FEF08958FEF9FEFAD
:1003000008958091340190E0919581959109089527
:10031000CF93DF9300D0CDB7DEB7CB01642F4983F5
:100320005A830E9452014981842F5A81952F0F9040
:100330000F90DF91CF910895CF93DF931F92CDB7A8
:10034000DEB7698361E0CE0101960E94520181E02F
:1003500090E00F90DF91CF9108950E94EF031F92DC
:100360000F920FB60F9211242F933F934F935F93E9
:100370006F937F938F939F93AF93BF93EF93FF936D
:1003800081EB91E00E94BE00FF91EF91BF91AF9190
:100390009F918F917F916F915F914F913F912F919D
:1003A0000F900FBE0F901F9018951F920F920FB6CF
:1003B0000F9211242F938F939F93EF93FF93E091CC
:1003C000C101F091C2018081E091C701F091C801A3
:1003D00082FD12C090818091CA018F5F8F7320913E
:1003E000CB01821751F0E091CA01F0E0EF54FE4FCB
:1003F000958F8093CA0101C08081FF91EF919F91F9
:100400008F912F910F900FBE0F901F9018951F92F4
:100410000F920FB60F9211242F933F938F939F93B8
:10042000AF93BF938091AD019091AE01A091AF01C8
:10043000B091B0013091AC0123E0230F2D3720F4AF
:100440000196A11DB11D05C026E8230F0296A11D2E
:10045000B11D2093AC018093AD019093AE01A093A8
:10046000AF01B093B0018091A8019091A901A09132
:10047000AA01B091AB010196A11DB11D8093A80105
:100480009093A901A093AA01B093AB01BF91AF9142
:100490009F918F913F912F910F900FBE0F901F90C2
:1004A00018951F920F920FB60F9211242F933F931E
:1004B0004F935F936F937F938F939F93AF93BF936C
:1004C000EF93FF938091B900887F803609F49CC038
:1004D00068F5883209F45BC090F4803109F454C0A7
:1004E00038F4882309F4F6C0883009F44DC0F6C00A
:1004F000883109F44CC0803209F45DC0EFC080340B
:1005000009F468C048F4803309F455C0883309F011
:10051000E5C080937C01D8C0803509F44FC0883590
:1005200009F45DC0883409F0D9C0D6C0883909F40F
:10053000C7C0A8F4883709F467C038F4883609F4CE
:1005400063C0803709F460C0C9C0883809F4B8C0F6
:10055000803909F45FC0803809F0C0C05BC0803BBF
:1005600009F486C038F4803A09F466C0883A09F480
:100570007FC0B4C0803C09F4A7C0883C09F4A4C083
:10058000883B09F48AC0AAC08091A20110C0909152
:10059000A1018091A001981770F5E091A10181E07F
:1005A0008E0F8093A101F0E0E058FE4F8081809390
:1005B000BB0085EC86C080937C018EC0E091A101D8
:1005C00081E08E0F8093A1018091BB00F0E0E058A4
:1005D000FE4F80839091A1018091A0016EC0E091B7
:1005E000A10181E08E0F8093A1018091BB00F0E01A
:1005F000E058FE4F808380917F0181116DC081E0C2
:1006000080937E0184EA61C083E080937D01109233
:100610007B01CFCF80917B01803208F051C0E09107
:100620007B0181E08E0F80937B018091BB00F0E025
:10063000E55AFE4F8083BDCF85EC8093BC001092BD
:100640007D0180917B01803230F4E0917B01F0E00C
:10065000E55AFE4F108260917B0170E0E0915901F4
:10066000F0915A018BE591E0099510927B0136C01B
:1006700084E080937D011092580110925701E0911F
:100680005501F0915601099580915701811105C0DE
:1006900081E08093570110923501E091580181E08B
:1006A0008E0F80935801F0E0EB5CFE4F80818093C9
:1006B000BB009091580180915701981708F479CFA9
:1006C00085E88093BC000AC085EC8093BC00109242
:1006D0007D0104C010927C010E944801FF91EF91BE
:1006E000BF91AF919F918F917F916F915F914F914A
:1006F0003F912F910F900FBE0F901F901895E1EB37
:10070000F1E01382128288EE93E0A0E0B0E08483EF
:100710009583A683B78324E031E03183208325ECE1
:1007200030E03587248724EC30E03787268720ECBB
:1007300030E0318B208B21EC30E0338B228B22ECAC
:1007400030E0358B248B26EC30E0378B268B118EF6
:10075000128E138E148EEEE4F2E01682178210864B
:100760001186128613861486158616861786108AB9
:10077000118A128A138A148A158AE6E9F2E0138232
:10078000128284839583A683B78384E191E0918369
:1007900080830895EF92FF920F931F93CF93DF937F
:1007A00080E2E82E81E0F82E03EA11E0C0E3D1E018
:1007B000FF92EF920E94F4031F930F93DF93CF9366
:1007C0000E940A040F900F900F900F900F900F90BF
:1007D000EFCFEE0FFF1F0590F491E02D099481E01B
:1007E00090E0F8940C94F109A0E0B0E0EAEFF3E0B7
:1007F0000C94CA09AE014B5F5F4FFA016191719190
:10080000AF018091A4029091A5020E942004E2E031
:100810000C94E609A0E0B0E0E0E1F4E00C94CA0931
:10082000AE014B5F5F4FFA0161917191AF01809111
:10083000A2029091A3020E947207E2E00C94E609E2
:10084000ACE0B0E0E6E2F4E00C94BA097C016B01A4
:100850008A01FC0117821682838181FFBDC1CE010E
:1008600001964C01F7019381F60193FD859193FF69
:1008700081916F01882309F4ABC1853239F493FD6E
:10088000859193FF81916F01853229F4B70190E042
:100890000E94FF08E7CF512C312C20E02032A0F439
:1008A0008B3269F030F4803259F0833269F4206180
:1008B0002CC08D3239F0803339F4216026C022609B
:1008C000246023C0286021C027FD27C030ED380FE9
:1008D0003A3078F426FF06C0FAE05F9E300D11240E
:1008E000532E13C08AE0389E300D1124332E20621F
:1008F0000CC08E3221F426FD6BC1206406C08C36FC
:1009000011F4206802C0883641F4F60193FD859108
:1009100093FF81916F018111C1CF982F9F7D9554D5
:10092000933028F40C5F1F4FFFE3F9830DC083362B
:1009300031F0833771F0833509F05BC022C0F801D4
:10094000808189830E5F1F4F44244394512C5401AE
:1009500015C03801F2E06F0E711CF801A080B18063
:1009600026FF03C0652D70E002C06FEF7FEFC50169
:100970002C870E94B6082C0183012C852F77222E0C
:1009800017C03801F2E06F0E711CF801A080B18031
:1009900026FF03C0652D70E002C06FEF7FEFC50139
:1009A0002C870E94AB082C012C852068222E830105
:1009B00023FC1BC0832D90E048165906B0F4B70104
:1009C00080E290E00E94FF083A94F4CFF50127FC02
:1009D000859127FE81915F01B70190E00E94FF0899
:1009E00031103A94F1E04F1A51084114510471F753
:1009F000E5C0843611F0893639F5F80127FF07C0C4
:100A000060817181828193810C5F1F4F08C060817A
:100A10007181072E000C880B990B0E5F1F4F2F76EC
:100A2000722E97FF09C090958095709561957F4FC4
:100A30008F4F9F4F2068722E2AE030E0A4010E9461
:100A40005009A82EA81844C0853729F42F7EB22E4D
:100A50002AE030E025C0F22FF97FBF2E8F36C1F09B
:100A600018F4883579F0B4C0803719F0883721F050
:100A7000AFC02F2F2061B22EB4FE0DC08B2D84602D
:100A8000B82E09C024FF0AC09F2F9660B92E06C059
:100A900028E030E005C020E130E002C020E132E093
:100AA000F801B7FE07C060817181828193810C5F7C
:100AB0001F4F06C06081718180E090E00E5F1F4F84
:100AC000A4010E945009A82EA818FB2DFF777F2EA5
:100AD00076FE0BC0372D3E7FA51450F474FE0AC07D
:100AE00072FC08C0372D3E7E05C0BA2C372D03C0DE
:100AF000BA2C01C0B52C34FF0DC0FE01EA0DF11D6A
:100B00008081803311F4397E09C032FF06C0B3946E
:100B1000B39404C0832F867809F0B39433FD13C0D7
:100B200030FF06C05A2CB31418F4530C5B18B32CC6
:100B3000B31468F4B70180E290E03C870E94FF089C
:100B4000B3943C85F5CFB31410F43B1801C0312C9D
:100B500034FF12C0B70180E390E03C870E94FF0899
:100B60003C8532FF17C031FD03C088E790E002C02A
:100B700088E590E0B7010CC0832F867859F031FFEB
:100B800002C08BE201C080E237FD8DE2B70190E048
:100B90000E94FF08A51438F4B70180E390E00E949A
:100BA000FF085A94F7CFAA94F401EA0DF11D808151
:100BB000B70190E00E94FF08A110F5CF332009F49F
:100BC00051CEB70180E290E00E94FF083A94F6CF40
:100BD000F7018681978102C08FEF9FEF2C96E2E1AB
:100BE0000C94D60920FD09C0FC0123FD05C022FF9D
:100BF00002C07383628351834083089544FD10C013
:100C000046FD10C0DB01FC01AA0FBB1FEE1FFF1F3A
:100C10001094D1F76A0F7B1F8E1F9F1F31E003C016
:100C200033E001C034E0660F771F881F991F3150F1
:100C3000D1F7620F711D811D911D08950F931F93B0
:100C4000CF93DF938C01C8010E94C108EC0197FD8E
:100C500008C00E94AE09892BB1F7B801CE010E94ED
:100C60003709CE01DF91CF911F910F910895A1E037
:100C7000B0E0EDE3F6E00C94C0098C01C62E7A01D9
:100C800029830E94C108AC01552729814B325105A7
:100C900021F04D32510569F42068CA94C11002C098
:100CA00080E076C0C80129830E94C108298197FD90
:100CB000F7CF322F3D7FD32E322F307349F580335B
:100CC00039F5BB24BA94BC0C09F44EC0C801298381
:100CD0000E94C108298197FD47C0382F3F7D3835D4
:100CE00069F48D2D8264D82ECA94CA94CC20E1F187
:100CF000C8010E94C10897FF0BC036C026FF04C080
:100D00002D2D2260D22E03C03D2D3261D32ECB2C4F
:100D1000812C912C540120ED280F283080F0D4FE36
:100D200004C0B8010E9437091CC02A3040F0D6FE2A
:100D3000F8CF2F7D3FEE320F363098F727504D2DEC
:100D4000C501B4010E94FE054B015C018D2D82603E
:100D5000D82ECA94CC2059F0C8010E94C10897FF30
:100D6000DACFD1FC04C09CCF812C912C5401D7FE4A
:100D700008C0B094A09490948094811C911CA11CF4
:100D8000B11C2D2DB501A401C7010E94F20581E01F
:100D90002196ECE00C94DC09A1E2B0E0E2EDF6E093
:100DA0000C94BE095C017A01CE0101966C0180E2CF
:100DB000F60111928A95E9F7F501838040E050E051
:100DC000912C712C70E0A1E0B0E0F90183FC8591D9
:100DD00083FE81918F01982F9F01811103C080E0D4
:100DE00090E07CC08E3519F44115510549F1E72F8B
:100DF000F0E0E417F5073CF48D3559F18D3219F424
:100E0000772001F103C0711001C0982E892F8695BB
:100E1000869586958601080F111D892F87703D01E3
:100E200001C0660C8A95EAF7F801808186298083E3
:100E3000991559F0991510F49F5FE8CF9150E6CFBE
:100E400071E004C07724739401C0712C4F5F5F4F31
:100E5000BCCF772019F08E8180628E83711103C020
:100E60009924939416C0F6019E012F5D3F4F808117
:100E700080958193E217F307D1F7F2CFE114F104E3
:100E800029F0F7018083C70101967C016150912C04
:100E9000F9F0C50169A30E94C10869A197FD16C0B8
:100EA000282F269526952695F601E20FF11D208123
:100EB00030E0AC014770552702C0359527954A951B
:100EC000E2F720FDDBCFB5010E943709911087CFF3
:100ED000E114F10411F0F7011082C801A196EEE0CF
:100EE0000C94DA094F925F927F928F929F92AF9209
:100EF000BF92CF92DF92EF92FF920F931F93CF9307
:100F0000DF931F92CDB7DEB76C012B015A01FC01B4
:100F100017821682712CF601F380F201F3FC8591A1
:100F2000F3FE8191382F2F01882309F4F3C090E05C
:100F300039830E94AE093981892B21F0C6010E94B4
:100F40001E06E9CF353241F4F201F3FC3591F3FE90
:100F500031912F01353269F4C60139830E94C108ED
:100F6000398197FDD5C03817B1F2B6010E94370913
:100F7000D1C03A3239F4F3FC3591F3FE31912F01AF
:100F800051E001C050E0420110E020ED230F2A3073
:100F900090F45260612F70E080E090E040E259836D
:100FA0000E94FE05162FF401F3FC3591F3FE3191FA
:100FB0004F015981EACF052F232F240151FF03C090
:100FC000111102C0A7C01FEF383619F03C3659F096
:100FD00011C0F401F3FC2591F3FE21912F01283675
:100FE00049F4052F08600460F201F3FC2591F3FE3B
:100FF00021912F01222309F48DC0622F70E088E631
:1010000090E029830E94A0082981892B09F482C0DD
:1010100000FD07C0F501E080F180C50102965C018A
:1010200002C0E12CF12C2E3651F4F6014681578195
:1010300060E070E0202FC7010E94F2056CCF2336DC
:1010400091F401FF11E0C6010E94C10897FD60C044
:10105000E114F10429F0F7018083C70101967C01B6
:10106000115089F751C02B3559F49201A701612F16
:10107000C6010E94CC062C01892B09F045C03FC057
:10108000C60129830E941E06298197FD41C02F3683
:1010900059F128F4243631F1293649F127C0233794
:1010A00069F02537F9F022C0E114F10429F0F701C5
:1010B0008082C70101967C01115071F0C6010E9427
:1010C000C1084C0197FD08C00E94AE09892B61F34D
:1010D000B601C4010E943709E114F104A9F0F70137
:1010E000108212C0006203C0006101C00064202FA2
:1010F000A701612FC6010E943706811105C0F601C4
:101100008381807329F406C000FD05CF739403CF5B
:10111000772019F0872D90E002C08FEF9FEF0F909E
:10112000DF91CF911F910F91FF90EF90DF90CF90C3
:10113000BF90AF909F908F907F905F904F90089559
:10114000FC010590061621F00020D9F7C001089592
:101150003197CF010895FC01059061507040011056
:10116000D8F7809590958E0F9F1F0895FC016150D0
:10117000704001900110D8F7809590958E0F9F1FB9
:101180000895CF93DF93EC012B8120FF33C026FF1E
:101190000AC02F7B2B838E819F8101969F838E8334
:1011A0008A8190E029C022FF0FC0E881F981808107
:1011B000082E000C990B009719F420622B831AC09B
:1011C0003196F983E8830EC0EA85FB85099597FF80
:1011D00009C02B81019611F080E201C080E1822BD1
:1011E0008B8308C02E813F812F5F3F4F3F832E832B
:1011F000992702C08FEF9FEFDF91CF9108950F9352
:101200001F93CF93DF93FB01238121FD03C08FEF59
:101210009FEF28C022FF16C0468157812481358167
:101220004217530744F4A081B1819D012F5F3F4FC6
:10123000318320838C93268137812F5F3F4F378303
:10124000268310C0EB01092F182F0084F185E02DB3
:101250000995892BE1F68E819F8101969F838E836C
:10126000812F902FDF91CF911F910F910895FB0156
:10127000238120FF12C026FD10C08F3F3FEF930750
:1012800061F082832F7D2064238326813781215062
:10129000310937832683992708958FEF9FEF0895AB
:1012A000FA01AA27283051F1203181F1E8946F9397
:1012B0006E7F6E5F7F4F8F4F9F4FAF4FB1E03ED03D
:1012C000B4E03CD0670F781F891F9A1FA11D680FDB
:1012D000791F8A1F911DA11D6A0F711D811D911D0E
:1012E000A11D20D009F468943F912AE0269F112483
:1012F0003019305D3193DEF6CF010895462F4770E7
:10130000405D4193B3E00FD0C9F7F6CF462F4F7041
:10131000405D4A3318F0495D31FD4052419302D09F
:10132000A9F7EACFB4E0A695979587957795679545
:10133000BA95C9F700976105710508959B01AC0145
:101340000A2E06945795479537952795BA95C9F76C
:10135000620F731F841F951FA01D089591110C9497
:10136000B709803219F089508550C8F70895992738
:10137000882708952F923F924F925F926F927F92AB
:101380008F929F92AF92BF92CF92DF92EF92FF9295
:101390000F931F93CF93DF93CDB7DEB7CA1BDB0B41
:1013A0000FB6F894DEBF0FBECDBF09942A883988E6
:1013B00048885F846E847D848C849B84AA84B984ED
:1013C000C884DF80EE80FD800C811B81AA81B981F9
:1013D000CE0FD11D0FB6F894DEBF0FBECDBFED010D
:0613E0000895F894FFCF10
:1013E60000000000DF006500B2009000A4002601A6
:1013F600000000009C01880181017E017B017A01C9
:101406004461746120746F20617070656E643A0087
:041416002569000044
:107E0000112484B714BE81FFF0D085E080938100F7
:107E100082E08093C00088E18093C10086E0809377
:107E2000C20080E18093C4008EE0C9D0259A86E02C
:107E300020E33CEF91E0309385002093840096BBD3
:107E4000B09BFECF1D9AA8958150A9F7CC24DD24C4
:107E500088248394B5E0AB2EA1E19A2EF3E0BF2EE7
:107E6000A2D0813461F49FD0082FAFD0023811F036
:107E7000013811F484E001C083E08DD089C08234E0
:107E800011F484E103C0853419F485E0A6D080C0E4
:107E9000853579F488D0E82EFF2485D0082F10E0AE
:107EA000102F00270E291F29000F111F8ED06801E7
:107EB0006FC0863521F484E090D080E0DECF843638
:107EC00009F040C070D06FD0082F6DD080E0C81688
:107ED00080E7D80618F4F601B7BEE895C0E0D1E017
:107EE00062D089930C17E1F7F0E0CF16F0E7DF06D8
:107EF00018F0F601B7BEE89568D007B600FCFDCFD4
:107F0000A601A0E0B1E02C9130E011968C91119780
:107F100090E0982F8827822B932B1296FA010C0160
:107F200087BEE89511244E5F5F4FF1E0A038BF0790
:107F300051F7F601A7BEE89507B600FCFDCF97BE46
:107F4000E89526C08437B1F42ED02DD0F82E2BD052
:107F50003CD0F601EF2C8F010F5F1F4F84911BD097
:107F6000EA94F801C1F70894C11CD11CFA94CF0C13
:107F7000D11C0EC0853739F428D08EE10CD085E9AC
:107F80000AD08FE07ACF813511F488E018D01DD067
:107F900080E101D065CF982F8091C00085FFFCCF94
:107FA0009093C60008958091C00087FFFCCF809118
:107FB000C00084FD01C0A8958091C6000895E0E648
:107FC000F0E098E1908380830895EDDF803219F02E
:107FD00088E0F5DFFFCF84E1DECF1F93182FE3DFCA
:107FE0001150E9F7F2DF1F91089580E0E8DFEE27F6
:047FF000FF270994CA
:027FFE00040479
:0400000300007E007B
:00000001FF